{
  "address": "0x5FbDB2315678afecb367f032d93F642f64180aa3",
  "abi": [
    {
      "inputs": [
        {
          "internalType": "uint96",
          "name": "_baseFee",
          "type": "uint96"
        },
        {
          "internalType": "uint96",
          "name": "_gasPriceLink",
          "type": "uint96"
        }
      ],
      "stateMutability": "nonpayable",
      "type": "constructor"
    },
    {
      "inputs": [],
      "name": "InsufficientBalance",
      "type": "error"
    },
    {
      "inputs": [],
      "name": "InvalidConsumer",
      "type": "error"
    },
    {
      "inputs": [],
      "name": "InvalidRandomWords",
      "type": "error"
    },
    {
      "inputs": [],
      "name": "InvalidSubscription",
      "type": "error"
    },
    {
      "inputs": [
        {
          "internalType": "address",
          "name": "owner",
          "type": "address"
        }
      ],
      "name": "MustBeSubOwner",
      "type": "error"
    },
    {
      "inputs": [],
      "name": "TooManyConsumers",
      "type": "error"
    },
    {
      "anonymous": false,
      "inputs": [
        {
          "indexed": true,
          "internalType": "uint64",
          "name": "subId",
          "type": "uint64"
        },
        {
          "indexed": false,
          "internalType": "address",
          "name": "consumer",
          "type": "address"
        }
      ],
      "name": "ConsumerAdded",
      "type": "event"
    },
    {
      "anonymous": false,
      "inputs": [
        {
          "indexed": true,
          "internalType": "uint64",
          "name": "subId",
          "type": "uint64"
        },
        {
          "indexed": false,
          "internalType": "address",
          "name": "consumer",
          "type": "address"
        }
      ],
      "name": "ConsumerRemoved",
      "type": "event"
    },
    {
      "anonymous": false,
      "inputs": [
        {
          "indexed": true,
          "internalType": "uint256",
          "name": "requestId",
          "type": "uint256"
        },
        {
          "indexed": false,
          "internalType": "uint256",
          "name": "outputSeed",
          "type": "uint256"
        },
        {
          "indexed": false,
          "internalType": "uint96",
          "name": "payment",
          "type": "uint96"
        },
        {
          "indexed": false,
          "internalType": "bool",
          "name": "success",
          "type": "bool"
        }
      ],
      "name": "RandomWordsFulfilled",
      "type": "event"
    },
    {
      "anonymous": false,
      "inputs": [
        {
          "indexed": true,
          "internalType": "bytes32",
          "name": "keyHash",
          "type": "bytes32"
        },
        {
          "indexed": false,
          "internalType": "uint256",
          "name": "requestId",
          "type": "uint256"
        },
        {
          "indexed": false,
          "internalType": "uint256",
          "name": "preSeed",
          "type": "uint256"
        },
        {
          "indexed": true,
          "internalType": "uint64",
          "name": "subId",
          "type": "uint64"
        },
        {
          "indexed": false,
          "internalType": "uint16",
          "name": "minimumRequestConfirmations",
          "type": "uint16"
        },
        {
          "indexed": false,
          "internalType": "uint32",
          "name": "callbackGasLimit",
          "type": "uint32"
        },
        {
          "indexed": false,
          "internalType": "uint32",
          "name": "numWords",
          "type": "uint32"
        },
        {
          "indexed": true,
          "internalType": "address",
          "name": "sender",
          "type": "address"
        }
      ],
      "name": "RandomWordsRequested",
      "type": "event"
    },
    {
      "anonymous": false,
      "inputs": [
        {
          "indexed": true,
          "internalType": "uint64",
          "name": "subId",
          "type": "uint64"
        },
        {
          "indexed": false,
          "internalType": "address",
          "name": "to",
          "type": "address"
        },
        {
          "indexed": false,
          "internalType": "uint256",
          "name": "amount",
          "type": "uint256"
        }
      ],
      "name": "SubscriptionCanceled",
      "type": "event"
    },
    {
      "anonymous": false,
      "inputs": [
        {
          "indexed": true,
          "internalType": "uint64",
          "name": "subId",
          "type": "uint64"
        },
        {
          "indexed": false,
          "internalType": "address",
          "name": "owner",
          "type": "address"
        }
      ],
      "name": "SubscriptionCreated",
      "type": "event"
    },
    {
      "anonymous": false,
      "inputs": [
        {
          "indexed": true,
          "internalType": "uint64",
          "name": "subId",
          "type": "uint64"
        },
        {
          "indexed": false,
          "internalType": "uint256",
          "name": "oldBalance",
          "type": "uint256"
        },
        {
          "indexed": false,
          "internalType": "uint256",
          "name": "newBalance",
          "type": "uint256"
        }
      ],
      "name": "SubscriptionFunded",
      "type": "event"
    },
    {
      "inputs": [],
      "name": "BASE_FEE",
      "outputs": [
        {
          "internalType": "uint96",
          "name": "",
          "type": "uint96"
        }
      ],
      "stateMutability": "view",
      "type": "function"
    },
    {
      "inputs": [],
      "name": "GAS_PRICE_LINK",
      "outputs": [
        {
          "internalType": "uint96",
          "name": "",
          "type": "uint96"
        }
      ],
      "stateMutability": "view",
      "type": "function"
    },
    {
      "inputs": [],
      "name": "MAX_CONSUMERS",
      "outputs": [
        {
          "internalType": "uint16",
          "name": "",
          "type": "uint16"
        }
      ],
      "stateMutability": "view",
      "type": "function"
    },
    {
      "inputs": [
        {
          "internalType": "uint64",
          "name": "_subId",
          "type": "uint64"
        }
      ],
      "name": "acceptSubscriptionOwnerTransfer",
      "outputs": [],
      "stateMutability": "pure",
      "type": "function"
    },
    {
      "inputs": [
        {
          "internalType": "uint64",
          "name": "_subId",
          "type": "uint64"
        },
        {
          "internalType": "address",
          "name": "_consumer",
          "type": "address"
        }
      ],
      "name": "addConsumer",
      "outputs": [],
      "stateMutability": "nonpayable",
      "type": "function"
    },
    {
      "inputs": [
        {
          "internalType": "uint64",
          "name": "_subId",
          "type": "uint64"
        },
        {
          "internalType": "address",
          "name": "_to",
          "type": "address"
        }
      ],
      "name": "cancelSubscription",
      "outputs": [],
      "stateMutability": "nonpayable",
      "type": "function"
    },
    {
      "inputs": [
        {
          "internalType": "uint64",
          "name": "_subId",
          "type": "uint64"
        },
        {
          "internalType": "address",
          "name": "_consumer",
          "type": "address"
        }
      ],
      "name": "consumerIsAdded",
      "outputs": [
        {
          "internalType": "bool",
          "name": "",
          "type": "bool"
        }
      ],
      "stateMutability": "view",
      "type": "function"
    },
    {
      "inputs": [],
      "name": "createSubscription",
      "outputs": [
        {
          "internalType": "uint64",
          "name": "_subId",
          "type": "uint64"
        }
      ],
      "stateMutability": "nonpayable",
      "type": "function"
    },
    {
      "inputs": [
        {
          "internalType": "uint256",
          "name": "_requestId",
          "type": "uint256"
        },
        {
          "internalType": "address",
          "name": "_consumer",
          "type": "address"
        }
      ],
      "name": "fulfillRandomWords",
      "outputs": [],
      "stateMutability": "nonpayable",
      "type": "function"
    },
    {
      "inputs": [
        {
          "internalType": "uint256",
          "name": "_requestId",
          "type": "uint256"
        },
        {
          "internalType": "address",
          "name": "_consumer",
          "type": "address"
        },
        {
          "internalType": "uint256[]",
          "name": "_words",
          "type": "uint256[]"
        }
      ],
      "name": "fulfillRandomWordsWithOverride",
      "outputs": [],
      "stateMutability": "nonpayable",
      "type": "function"
    },
    {
      "inputs": [
        {
          "internalType": "uint64",
          "name": "_subId",
          "type": "uint64"
        },
        {
          "internalType": "uint96",
          "name": "_amount",
          "type": "uint96"
        }
      ],
      "name": "fundSubscription",
      "outputs": [],
      "stateMutability": "nonpayable",
      "type": "function"
    },
    {
      "inputs": [],
      "name": "getConfig",
      "outputs": [
        {
          "internalType": "uint16",
          "name": "minimumRequestConfirmations",
          "type": "uint16"
        },
        {
          "internalType": "uint32",
          "name": "maxGasLimit",
          "type": "uint32"
        },
        {
          "internalType": "uint32",
          "name": "stalenessSeconds",
          "type": "uint32"
        },
        {
          "internalType": "uint32",
          "name": "gasAfterPaymentCalculation",
          "type": "uint32"
        }
      ],
      "stateMutability": "view",
      "type": "function"
    },
    {
      "inputs": [],
      "name": "getFallbackWeiPerUnitLink",
      "outputs": [
        {
          "internalType": "int256",
          "name": "",
          "type": "int256"
        }
      ],
      "stateMutability": "view",
      "type": "function"
    },
    {
      "inputs": [],
      "name": "getFeeConfig",
      "outputs": [
        {
          "internalType": "uint32",
          "name": "fulfillmentFlatFeeLinkPPMTier1",
          "type": "uint32"
        },
        {
          "internalType": "uint32",
          "name": "fulfillmentFlatFeeLinkPPMTier2",
          "type": "uint32"
        },
        {
          "internalType": "uint32",
          "name": "fulfillmentFlatFeeLinkPPMTier3",
          "type": "uint32"
        },
        {
          "internalType": "uint32",
          "name": "fulfillmentFlatFeeLinkPPMTier4",
          "type": "uint32"
        },
        {
          "internalType": "uint32",
          "name": "fulfillmentFlatFeeLinkPPMTier5",
          "type": "uint32"
        },
        {
          "internalType": "uint24",
          "name": "reqsForTier2",
          "type": "uint24"
        },
        {
          "internalType": "uint24",
          "name": "reqsForTier3",
          "type": "uint24"
        },
        {
          "internalType": "uint24",
          "name": "reqsForTier4",
          "type": "uint24"
        },
        {
          "internalType": "uint24",
          "name": "reqsForTier5",
          "type": "uint24"
        }
      ],
      "stateMutability": "view",
      "type": "function"
    },
    {
      "inputs": [],
      "name": "getRequestConfig",
      "outputs": [
        {
          "internalType": "uint16",
          "name": "",
          "type": "uint16"
        },
        {
          "internalType": "uint32",
          "name": "",
          "type": "uint32"
        },
        {
          "internalType": "bytes32[]",
          "name": "",
          "type": "bytes32[]"
        }
      ],
      "stateMutability": "pure",
      "type": "function"
    },
    {
      "inputs": [
        {
          "internalType": "uint64",
          "name": "_subId",
          "type": "uint64"
        }
      ],
      "name": "getSubscription",
      "outputs": [
        {
          "internalType": "uint96",
          "name": "balance",
          "type": "uint96"
        },
        {
          "internalType": "uint64",
          "name": "reqCount",
          "type": "uint64"
        },
        {
          "internalType": "address",
          "name": "owner",
          "type": "address"
        },
        {
          "internalType": "address[]",
          "name": "consumers",
          "type": "address[]"
        }
      ],
      "stateMutability": "view",
      "type": "function"
    },
    {
      "inputs": [],
      "name": "getSubscriptionId",
      "outputs": [
        {
          "internalType": "uint64",
          "name": "",
          "type": "uint64"
        }
      ],
      "stateMutability": "view",
      "type": "function"
    },
    {
      "inputs": [
        {
          "internalType": "uint64",
          "name": "subId",
          "type": "uint64"
        }
      ],
      "name": "pendingRequestExists",
      "outputs": [
        {
          "internalType": "bool",
          "name": "",
          "type": "bool"
        }
      ],
      "stateMutability": "view",
      "type": "function"
    },
    {
      "inputs": [
        {
          "internalType": "uint64",
          "name": "_subId",
          "type": "uint64"
        },
        {
          "internalType": "address",
          "name": "_consumer",
          "type": "address"
        }
      ],
      "name": "removeConsumer",
      "outputs": [],
      "stateMutability": "nonpayable",
      "type": "function"
    },
    {
      "inputs": [
        {
          "internalType": "bytes32",
          "name": "_keyHash",
          "type": "bytes32"
        },
        {
          "internalType": "uint64",
          "name": "_subId",
          "type": "uint64"
        },
        {
          "internalType": "uint16",
          "name": "_minimumRequestConfirmations",
          "type": "uint16"
        },
        {
          "internalType": "uint32",
          "name": "_callbackGasLimit",
          "type": "uint32"
        },
        {
          "internalType": "uint32",
          "name": "_numWords",
          "type": "uint32"
        }
      ],
      "name": "requestRandomWords",
      "outputs": [
        {
          "internalType": "uint256",
          "name": "",
          "type": "uint256"
        }
      ],
      "stateMutability": "nonpayable",
      "type": "function"
    },
    {
      "inputs": [
        {
          "internalType": "uint64",
          "name": "_subId",
          "type": "uint64"
        },
        {
          "internalType": "address",
          "name": "_newOwner",
          "type": "address"
        }
      ],
      "name": "requestSubscriptionOwnerTransfer",
      "outputs": [],
      "stateMutability": "pure",
      "type": "function"
    }
  ],
  "transactionHash": "0xfa8f9649808473461ee08b2b8f63767f2a1e62d3298f723af6a31d8b1c648015",
  "args": [
    "250000000000000000",
    1000000000
  ],
  "numDeployments": 1,
  "solcInputHash": "c1cc7d42e2869991b137de47aec9f4d0",
  "bytecode": "0x60e0604052606461ffff1660c09061ffff1660f01b8152506001805560646002553480156200002d57600080fd5b5060405162002e1438038062002e148339818101604052810190620000539190620000c0565b816bffffffffffffffffffffffff166080816bffffffffffffffffffffffff1660a01b81525050806bffffffffffffffffffffffff1660a0816bffffffffffffffffffffffff1660a01b8152505050506200013e565b600081519050620000ba8162000124565b92915050565b60008060408385031215620000da57620000d96200011f565b5b6000620000ea85828601620000a9565b9250506020620000fd85828601620000a9565b9150509250929050565b60006bffffffffffffffffffffffff82169050919050565b600080fd5b6200012f8162000107565b81146200013b57600080fd5b50565b60805160a01c60a05160a01c60c05160f01c612c886200018c60003960008181610ce00152610e2b0152600081816107c8015261154d01526000818161080d0152610a1c0152612c886000f3fe608060405234801561001057600080fd5b50600436106101365760003560e01c806382359740116100b8578063afc69b531161007c578063afc69b5314610322578063c3f909d41461033e578063d7ae1d301461035f578063de3d9fb71461037b578063e82ad7d414610399578063ed5eb06d146103c957610136565b8063823597401461027b5780639f87fad714610297578063a21a23e4146102b3578063a410347f146102d1578063a47c7696146102ef57610136565b80635d3b1d30116100ff5780635d3b1d30146101cf5780635fbbc0d2146101ff57806364d51a2a146102255780637341c10c14610243578063808974ff1461025f57610136565b80620122911461013b57806304c357cb1461015b57806308e3898e14610177578063356dac71146101935780633d18651e146101b1575b600080fd5b6101436103f9565b604051610152939291906123a3565b60405180910390f35b61017560048036038101906101709190611f9b565b610459565b005b610191600480360381019061018c9190611eff565b610494565b005b61019b610a0b565b6040516101a8919061232d565b60405180910390f35b6101b9610a1a565b6040516101c691906125cc565b60405180910390f35b6101e960048036038101906101e49190611e44565b610a3e565b6040516101f69190612426565b60405180910390f35b610207610c9f565b60405161021c99989796959493929190612524565b60405180910390f35b61022d610cde565b60405161023a9190612388565b60405180910390f35b61025d60048036038101906102589190611f9b565b610d02565b005b61027960048036038101906102749190611ebf565b610f96565b005b61029560048036038101906102909190611f6e565b610fee565b005b6102b160048036038101906102ac9190611f9b565b611029565b005b6102bb611396565b6040516102c891906125b1565b60405180910390f35b6102d961154b565b6040516102e691906125cc565b60405180910390f35b61030960048036038101906103049190611f6e565b61156f565b60405161031994939291906125e7565b60405180910390f35b61033c60048036038101906103379190611fdb565b611775565b005b610346611940565b60405161035694939291906123e1565b60405180910390f35b61037960048036038101906103749190611f9b565b611960565b005b610383611b83565b60405161039091906125b1565b60405180910390f35b6103b360048036038101906103ae9190611f6e565b611ba0565b6040516103c09190612312565b60405180910390f35b6103e360048036038101906103de9190611f9b565b611bdd565b6040516103f09190612312565b60405180910390f35b60008060606003621e8480600067ffffffffffffffff81111561041f5761041e612b0b565b5b60405190808252806020026020018201604052801561044d5781602001602082028036833780820191505090505b50925092509250909192565b6040517f08c379a000000000000000000000000000000000000000000000000000000000815260040161048b90612348565b60405180910390fd5b60005a905060006005600086815260200190815260200160002060000160009054906101000a900467ffffffffffffffff1667ffffffffffffffff161415610511576040517f08c379a000000000000000000000000000000000000000000000000000000000815260040161050890612368565b60405180910390fd5b6000600560008681526020019081526020016000206040518060600160405290816000820160009054906101000a900467ffffffffffffffff1667ffffffffffffffff1667ffffffffffffffff1681526020016000820160089054906101000a900463ffffffff1663ffffffff1663ffffffff16815260200160008201600c9054906101000a900463ffffffff1663ffffffff1663ffffffff1681525050905060008351141561068957806040015163ffffffff1667ffffffffffffffff8111156105df576105de612b0b565b5b60405190808252806020026020018201604052801561060d5781602001602082028036833780820191505090505b50925060005b816040015163ffffffff16811015610683578581604051602001610638929190612471565b6040516020818303038152906040528051906020012060001c84828151811061066457610663612adc565b5b602002602001018181525050808061067b90612a04565b915050610613565b506106ce565b806040015163ffffffff168351146106cd576040517f3f3df5b600000000000000000000000000000000000000000000000000000000815260040160405180910390fd5b5b600080631fe543e360e01b87866040516024016106ec929190612441565b604051602081830303815290604052907bffffffffffffffffffffffffffffffffffffffffffffffffffffffff19166020820180517bffffffffffffffffffffffffffffffffffffffffffffffffffffffff8381831617835250505050905060008673ffffffffffffffffffffffffffffffffffffffff16846020015163ffffffff168360405161077d91906122b7565b60006040518083038160008787f1925050503d80600081146107bb576040519150601f19603f3d011682016040523d82523d6000602084013e6107c0565b606091505b5050905060007f00000000000000000000000000000000000000000000000000000000000000006bffffffffffffffffffffffff165a876108019190612871565b61080b9190612817565b7f00000000000000000000000000000000000000000000000000000000000000006bffffffffffffffffffffffff16610844919061277f565b9050806bffffffffffffffffffffffff1660036000876000015167ffffffffffffffff1667ffffffffffffffff16815260200190815260200160002060000160149054906101000a90046bffffffffffffffffffffffff166bffffffffffffffffffffffff1610156108e2576040517ff4d678b800000000000000000000000000000000000000000000000000000000815260040160405180910390fd5b8060036000876000015167ffffffffffffffff1667ffffffffffffffff16815260200190815260200160002060000160148282829054906101000a90046bffffffffffffffffffffffff1661093791906128a5565b92506101000a8154816bffffffffffffffffffffffff02191690836bffffffffffffffffffffffff160217905550600560008a8152602001908152602001600020600080820160006101000a81549067ffffffffffffffff02191690556000820160086101000a81549063ffffffff021916905560008201600c6101000a81549063ffffffff02191690555050887f7dffc5ae5ee4e2e4df1651cf6ad329a73cebdb728f37ea0187b9b17e036756e48a83856040516109f8939291906124ed565b60405180910390a2505050505050505050565b6000660e35fa931a0000905090565b7f000000000000000000000000000000000000000000000000000000000000000081565b60008433610a4c8282611bdd565b610a82576040517f71e8313700000000000000000000000000000000000000000000000000000000815260040160405180910390fd5b600073ffffffffffffffffffffffffffffffffffffffff16600360008967ffffffffffffffff1667ffffffffffffffff16815260200190815260200160002060000160009054906101000a900473ffffffffffffffffffffffffffffffffffffffff1673ffffffffffffffffffffffffffffffffffffffff161415610b33576040517f1f6a65b600000000000000000000000000000000000000000000000000000000815260040160405180910390fd5b600060016000815480929190610b4890612a04565b919050559050600060026000815480929190610b6390612a04565b91905055905060405180606001604052808a67ffffffffffffffff1681526020018863ffffffff1681526020018763ffffffff168152506005600084815260200190815260200160002060008201518160000160006101000a81548167ffffffffffffffff021916908367ffffffffffffffff16021790555060208201518160000160086101000a81548163ffffffff021916908363ffffffff160217905550604082015181600001600c6101000a81548163ffffffff021916908363ffffffff1602179055509050503373ffffffffffffffffffffffffffffffffffffffff168967ffffffffffffffff168b7f63373d1c4696214b898952999c9aaec57dac1ee2723cec59bea6888f489a977285858d8d8d604051610c8795949392919061249a565b60405180910390a48194505050505095945050505050565b6000806000806000806000806000620186a080620186a080620186a0600080600080985098509850985098509850985098509850909192939495969798565b7f000000000000000000000000000000000000000000000000000000000000000081565b816000600360008367ffffffffffffffff1667ffffffffffffffff16815260200190815260200160002060000160009054906101000a900473ffffffffffffffffffffffffffffffffffffffff169050600073ffffffffffffffffffffffffffffffffffffffff168173ffffffffffffffffffffffffffffffffffffffff161415610db9576040517f1f6a65b600000000000000000000000000000000000000000000000000000000815260040160405180910390fd5b8073ffffffffffffffffffffffffffffffffffffffff163373ffffffffffffffffffffffffffffffffffffffff1614610e2957806040517fd8a3fb52000000000000000000000000000000000000000000000000000000008152600401610e2091906122ce565b60405180910390fd5b7f000000000000000000000000000000000000000000000000000000000000000061ffff16600460008667ffffffffffffffff1667ffffffffffffffff168152602001908152602001600020805490501415610eb1576040517f05a48e0f00000000000000000000000000000000000000000000000000000000815260040160405180910390fd5b610ebb8484611bdd565b15610ec557610f90565b600460008567ffffffffffffffff1667ffffffffffffffff168152602001908152602001600020839080600181540180825580915050600190039060005260206000200160009091909190916101000a81548173ffffffffffffffffffffffffffffffffffffffff021916908373ffffffffffffffffffffffffffffffffffffffff1602179055508367ffffffffffffffff167f752ead9f4536ec1319ee3a5a604e1d65eded22e0924251552ba14ae4faa1bbc384604051610f8791906122ce565b60405180910390a25b50505050565b610fea8282600067ffffffffffffffff811115610fb657610fb5612b0b565b5b604051908082528060200260200182016040528015610fe45781602001602082028036833780820191505090505b50610494565b5050565b6040517f08c379a000000000000000000000000000000000000000000000000000000000815260040161102090612348565b60405180910390fd5b816000600360008367ffffffffffffffff1667ffffffffffffffff16815260200190815260200160002060000160009054906101000a900473ffffffffffffffffffffffffffffffffffffffff169050600073ffffffffffffffffffffffffffffffffffffffff168173ffffffffffffffffffffffffffffffffffffffff1614156110e0576040517f1f6a65b600000000000000000000000000000000000000000000000000000000815260040160405180910390fd5b8073ffffffffffffffffffffffffffffffffffffffff163373ffffffffffffffffffffffffffffffffffffffff161461115057806040517fd8a3fb5200000000000000000000000000000000000000000000000000000000815260040161114791906122ce565b60405180910390fd5b838361115c8282611bdd565b611192576040517f71e8313700000000000000000000000000000000000000000000000000000000815260040160405180910390fd5b6000600460008867ffffffffffffffff1667ffffffffffffffff168152602001908152602001600020905060005b818054905081101561134a578673ffffffffffffffffffffffffffffffffffffffff168282815481106111f6576111f5612adc565b5b9060005260206000200160009054906101000a900473ffffffffffffffffffffffffffffffffffffffff1673ffffffffffffffffffffffffffffffffffffffff16141561133757600082600184805490506112519190612871565b8154811061126257611261612adc565b5b9060005260206000200160009054906101000a900473ffffffffffffffffffffffffffffffffffffffff169050808383815481106112a3576112a2612adc565b5b9060005260206000200160006101000a81548173ffffffffffffffffffffffffffffffffffffffff021916908373ffffffffffffffffffffffffffffffffffffffff160217905550828054806112fc576112fb612aad565b5b6001900381819060005260206000200160006101000a81549073ffffffffffffffffffffffffffffffffffffffff021916905590555061134a565b808061134290612a04565b9150506111c0565b508667ffffffffffffffff167ff9bc9d5b5733d904409def43a5ecc888dbdac9a95687780d8fd489d3bb3813fc8760405161138591906122ce565b60405180910390a250505050505050565b600080600081819054906101000a900467ffffffffffffffff16809291906113bd90612a4d565b91906101000a81548167ffffffffffffffff021916908367ffffffffffffffff1602179055505060405180604001604052803373ffffffffffffffffffffffffffffffffffffffff16815260200160006bffffffffffffffffffffffff16815250600360008060009054906101000a900467ffffffffffffffff1667ffffffffffffffff1667ffffffffffffffff16815260200190815260200160002060008201518160000160006101000a81548173ffffffffffffffffffffffffffffffffffffffff021916908373ffffffffffffffffffffffffffffffffffffffff16021790555060208201518160000160146101000a8154816bffffffffffffffffffffffff02191690836bffffffffffffffffffffffff16021790555090505060008054906101000a900467ffffffffffffffff1667ffffffffffffffff167f464722b4166576d3dcbba877b999bc35cf911f4eaf434b7eba68fa113951d0bf3360405161152991906122ce565b60405180910390a260008054906101000a900467ffffffffffffffff16905090565b7f000000000000000000000000000000000000000000000000000000000000000081565b60008060006060600073ffffffffffffffffffffffffffffffffffffffff16600360008767ffffffffffffffff1667ffffffffffffffff16815260200190815260200160002060000160009054906101000a900473ffffffffffffffffffffffffffffffffffffffff1673ffffffffffffffffffffffffffffffffffffffff161415611627576040517f1f6a65b600000000000000000000000000000000000000000000000000000000815260040160405180910390fd5b600360008667ffffffffffffffff1667ffffffffffffffff16815260200190815260200160002060000160149054906101000a90046bffffffffffffffffffffffff166000600360008867ffffffffffffffff1667ffffffffffffffff16815260200190815260200160002060000160009054906101000a900473ffffffffffffffffffffffffffffffffffffffff16600460008967ffffffffffffffff1667ffffffffffffffff1681526020019081526020016000208080548060200260200160405190810160405280929190818152602001828054801561175f57602002820191906000526020600020905b8160009054906101000a900473ffffffffffffffffffffffffffffffffffffffff1673ffffffffffffffffffffffffffffffffffffffff1681526020019060010190808311611715575b5050505050905093509350935093509193509193565b600073ffffffffffffffffffffffffffffffffffffffff16600360008467ffffffffffffffff1667ffffffffffffffff16815260200190815260200160002060000160009054906101000a900473ffffffffffffffffffffffffffffffffffffffff1673ffffffffffffffffffffffffffffffffffffffff161415611826576040517f1f6a65b600000000000000000000000000000000000000000000000000000000815260040160405180910390fd5b6000600360008467ffffffffffffffff1667ffffffffffffffff16815260200190815260200160002060000160149054906101000a90046bffffffffffffffffffffffff16905081600360008567ffffffffffffffff1667ffffffffffffffff16815260200190815260200160002060000160148282829054906101000a90046bffffffffffffffffffffffff166118be91906127d5565b92506101000a8154816bffffffffffffffffffffffff02191690836bffffffffffffffffffffffff1602179055508267ffffffffffffffff167fd39ec07f4e209f627a4c427971473820dc129761ba28de8906bd56f57101d4f882848461192591906127d5565b604051611933929190612633565b60405180910390a2505050565b6000806000806004622625a0610a8c618205935093509350935090919293565b816000600360008367ffffffffffffffff1667ffffffffffffffff16815260200190815260200160002060000160009054906101000a900473ffffffffffffffffffffffffffffffffffffffff169050600073ffffffffffffffffffffffffffffffffffffffff168173ffffffffffffffffffffffffffffffffffffffff161415611a17576040517f1f6a65b600000000000000000000000000000000000000000000000000000000815260040160405180910390fd5b8073ffffffffffffffffffffffffffffffffffffffff163373ffffffffffffffffffffffffffffffffffffffff1614611a8757806040517fd8a3fb52000000000000000000000000000000000000000000000000000000008152600401611a7e91906122ce565b60405180910390fd5b8367ffffffffffffffff167fe8ed5b475a5b5987aa9165e8731bb78043f39eee32ec5a1169a89e27fcd4981584600360008867ffffffffffffffff1667ffffffffffffffff16815260200190815260200160002060000160149054906101000a90046bffffffffffffffffffffffff16604051611b059291906122e9565b60405180910390a2600360008567ffffffffffffffff1667ffffffffffffffff168152602001908152602001600020600080820160006101000a81549073ffffffffffffffffffffffffffffffffffffffff02191690556000820160146101000a8154906bffffffffffffffffffffffff0219169055505050505050565b60008060009054906101000a900467ffffffffffffffff16905090565b60006040517f08c379a0000000000000000000000000000000000000000000000000000000008152600401611bd490612348565b60405180910390fd5b600080600460008567ffffffffffffffff1667ffffffffffffffff168152602001908152602001600020805480602002602001604051908101604052809291908181526020018280548015611c8757602002820191906000526020600020905b8160009054906101000a900473ffffffffffffffffffffffffffffffffffffffff1673ffffffffffffffffffffffffffffffffffffffff1681526020019060010190808311611c3d575b5050505050905060005b8151811015611d06578373ffffffffffffffffffffffffffffffffffffffff16828281518110611cc457611cc3612adc565b5b602002602001015173ffffffffffffffffffffffffffffffffffffffff161415611cf357600192505050611d0d565b8080611cfe90612a04565b915050611c91565b5060009150505b92915050565b6000611d26611d2184612681565b61265c565b90508083825260208201905082856020860282011115611d4957611d48612b3f565b5b60005b85811015611d795781611d5f8882611df0565b845260208401935060208301925050600181019050611d4c565b5050509392505050565b600081359050611d9281612bb1565b92915050565b600082601f830112611dad57611dac612b3a565b5b8135611dbd848260208601611d13565b91505092915050565b600081359050611dd581612bc8565b92915050565b600081359050611dea81612bdf565b92915050565b600081359050611dff81612bf6565b92915050565b600081359050611e1481612c0d565b92915050565b600081359050611e2981612c24565b92915050565b600081359050611e3e81612c3b565b92915050565b600080600080600060a08688031215611e6057611e5f612b49565b5b6000611e6e88828901611dc6565b9550506020611e7f88828901611e1a565b9450506040611e9088828901611ddb565b9350506060611ea188828901611e05565b9250506080611eb288828901611e05565b9150509295509295909350565b60008060408385031215611ed657611ed5612b49565b5b6000611ee485828601611df0565b9250506020611ef585828601611d83565b9150509250929050565b600080600060608486031215611f1857611f17612b49565b5b6000611f2686828701611df0565b9350506020611f3786828701611d83565b925050604084013567ffffffffffffffff811115611f5857611f57612b44565b5b611f6486828701611d98565b9150509250925092565b600060208284031215611f8457611f83612b49565b5b6000611f9284828501611e1a565b91505092915050565b60008060408385031215611fb257611fb1612b49565b5b6000611fc085828601611e1a565b9250506020611fd185828601611d83565b9150509250929050565b60008060408385031215611ff257611ff1612b49565b5b600061200085828601611e1a565b925050602061201185828601611e2f565b9150509250929050565b60006120278383612063565b60208301905092915050565b600061203f83836121aa565b60208301905092915050565b6000612057838361225d565b60208301905092915050565b61206c816128d9565b82525050565b61207b816128d9565b82525050565b600061208c826126dd565b6120968185612730565b93506120a1836126ad565b8060005b838110156120d25781516120b9888261201b565b97506120c483612709565b9250506001810190506120a5565b5085935050505092915050565b60006120ea826126e8565b6120f48185612741565b93506120ff836126bd565b8060005b838110156121305781516121178882612033565b975061212283612716565b925050600181019050612103565b5085935050505092915050565b6000612148826126f3565b6121528185612752565b935061215d836126cd565b8060005b8381101561218e578151612175888261204b565b975061218083612723565b925050600181019050612161565b5085935050505092915050565b6121a4816128eb565b82525050565b6121b3816128f7565b82525050565b60006121c4826126fe565b6121ce8185612763565b93506121de8185602086016129a0565b80840191505092915050565b6121f381612901565b82525050565b6000612206600f8361276e565b915061221182612b5f565b602082019050919050565b600061222960138361276e565b915061223482612b88565b602082019050919050565b6122488161290b565b82525050565b61225781612939565b82525050565b61226681612948565b82525050565b61227581612948565b82525050565b61228481612952565b82525050565b61229381612962565b82525050565b6122a28161298e565b82525050565b6122b181612976565b82525050565b60006122c382846121b9565b915081905092915050565b60006020820190506122e36000830184612072565b92915050565b60006040820190506122fe6000830185612072565b61230b6020830184612299565b9392505050565b6000602082019050612327600083018461219b565b92915050565b600060208201905061234260008301846121ea565b92915050565b60006020820190508181036000830152612361816121f9565b9050919050565b600060208201905081810360008301526123818161221c565b9050919050565b600060208201905061239d600083018461223f565b92915050565b60006060820190506123b8600083018661223f565b6123c5602083018561227b565b81810360408301526123d781846120df565b9050949350505050565b60006080820190506123f6600083018761223f565b612403602083018661227b565b612410604083018561227b565b61241d606083018461227b565b95945050505050565b600060208201905061243b600083018461226c565b92915050565b6000604082019050612456600083018561226c565b8181036020830152612468818461213d565b90509392505050565b6000604082019050612486600083018561226c565b612493602083018461226c565b9392505050565b600060a0820190506124af600083018861226c565b6124bc602083018761226c565b6124c9604083018661223f565b6124d6606083018561227b565b6124e3608083018461227b565b9695505050505050565b6000606082019050612502600083018661226c565b61250f60208301856122a8565b61251c604083018461219b565b949350505050565b60006101208201905061253a600083018c61227b565b612547602083018b61227b565b612554604083018a61227b565b612561606083018961227b565b61256e608083018861227b565b61257b60a083018761224e565b61258860c083018661224e565b61259560e083018561224e565b6125a361010083018461224e565b9a9950505050505050505050565b60006020820190506125c6600083018461228a565b92915050565b60006020820190506125e160008301846122a8565b92915050565b60006080820190506125fc60008301876122a8565b612609602083018661228a565b6126166040830185612072565b81810360608301526126288184612081565b905095945050505050565b60006040820190506126486000830185612299565b6126556020830184612299565b9392505050565b6000612666612677565b905061267282826129d3565b919050565b6000604051905090565b600067ffffffffffffffff82111561269c5761269b612b0b565b5b602082029050602081019050919050565b6000819050602082019050919050565b6000819050602082019050919050565b6000819050602082019050919050565b600081519050919050565b600081519050919050565b600081519050919050565b600081519050919050565b6000602082019050919050565b6000602082019050919050565b6000602082019050919050565b600082825260208201905092915050565b600082825260208201905092915050565b600082825260208201905092915050565b600081905092915050565b600082825260208201905092915050565b600061278a82612948565b915061279583612948565b9250827fffffffffffffffffffffffffffffffffffffffffffffffffffffffffffffffff038211156127ca576127c9612a7e565b5b828201905092915050565b60006127e082612976565b91506127eb83612976565b9250826bffffffffffffffffffffffff0382111561280c5761280b612a7e565b5b828201905092915050565b600061282282612948565b915061282d83612948565b9250817fffffffffffffffffffffffffffffffffffffffffffffffffffffffffffffffff048311821515161561286657612865612a7e565b5b828202905092915050565b600061287c82612948565b915061288783612948565b92508282101561289a57612899612a7e565b5b828203905092915050565b60006128b082612976565b91506128bb83612976565b9250828210156128ce576128cd612a7e565b5b828203905092915050565b60006128e482612919565b9050919050565b60008115159050919050565b6000819050919050565b6000819050919050565b600061ffff82169050919050565b600073ffffffffffffffffffffffffffffffffffffffff82169050919050565b600062ffffff82169050919050565b6000819050919050565b600063ffffffff82169050919050565b600067ffffffffffffffff82169050919050565b60006bffffffffffffffffffffffff82169050919050565b600061299982612976565b9050919050565b60005b838110156129be5780820151818401526020810190506129a3565b838111156129cd576000848401525b50505050565b6129dc82612b4e565b810181811067ffffffffffffffff821117156129fb576129fa612b0b565b5b80604052505050565b6000612a0f82612948565b91507fffffffffffffffffffffffffffffffffffffffffffffffffffffffffffffffff821415612a4257612a41612a7e565b5b600182019050919050565b6000612a5882612962565b915067ffffffffffffffff821415612a7357612a72612a7e565b5b600182019050919050565b7f4e487b7100000000000000000000000000000000000000000000000000000000600052601160045260246000fd5b7f4e487b7100000000000000000000000000000000000000000000000000000000600052603160045260246000fd5b7f4e487b7100000000000000000000000000000000000000000000000000000000600052603260045260246000fd5b7f4e487b7100000000000000000000000000000000000000000000000000000000600052604160045260246000fd5b600080fd5b600080fd5b600080fd5b600080fd5b6000601f19601f8301169050919050565b7f6e6f7420696d706c656d656e7465640000000000000000000000000000000000600082015250565b7f6e6f6e6578697374656e74207265717565737400000000000000000000000000600082015250565b612bba816128d9565b8114612bc557600080fd5b50565b612bd1816128f7565b8114612bdc57600080fd5b50565b612be88161290b565b8114612bf357600080fd5b50565b612bff81612948565b8114612c0a57600080fd5b50565b612c1681612952565b8114612c2157600080fd5b50565b612c2d81612962565b8114612c3857600080fd5b50565b612c4481612976565b8114612c4f57600080fd5b5056fea26469706673582212201d5bd01361048e6f45b07c79d39f83a76ab2e48440463a6e68002be2e278a86b64736f6c63430008070033",
  "devdoc": {
    "kind": "dev",
    "methods": {
      "createSubscription()": {
        "details": "You can manage the consumer set dynamically with addConsumer/removeConsumer.Note to fund the subscription, use transferAndCall. For exampleLINKTOKEN.transferAndCall(address(COORDINATOR),amount,abi.encode(subId));",
        "returns": {
          "_subId": "- A unique subscription id."
        }
      },
      "fulfillRandomWords(uint256,address)": {
        "details": "This mock uses a simplified formula for calculating payment amount and gas usage, and doesnot account for all edge cases handled in the real VRF coordinator. When making requestsagainst the real coordinator a small amount of additional LINK is required.",
        "params": {
          "_consumer": "the VRF randomness consumer to send the result to",
          "_requestId": "the request to fulfill"
        }
      },
      "fulfillRandomWordsWithOverride(uint256,address,uint256[])": {
        "params": {
          "_consumer": "the VRF randomness consumer to send the result to",
          "_requestId": "the request to fulfill",
          "_words": "user-provided random words"
        }
      },
      "fundSubscription(uint64,uint96)": {
        "params": {
          "_amount": "the amount to fund",
          "_subId": "the subscription to fund"
        }
      },
      "getRequestConfig()": {
        "returns": {
          "_0": "minimumRequestConfirmations global min for request confirmations",
          "_1": "maxGasLimit global max for request gas limit",
          "_2": "s_provingKeyHashes list of registered key hashes"
        }
      }
    },
    "version": 1
  },
  "userdoc": {
    "kind": "user",
    "methods": {
      "createSubscription()": {
        "notice": "Create a VRF subscription."
      },
      "fulfillRandomWords(uint256,address)": {
        "notice": "fulfillRandomWords fulfills the given request, sending the random words to the suppliedconsumer."
      },
      "fulfillRandomWordsWithOverride(uint256,address,uint256[])": {
        "notice": "fulfillRandomWordsWithOverride allows the user to pass in their own random words."
      },
      "fundSubscription(uint64,uint96)": {
        "notice": "fundSubscription allows funding a subscription with an arbitrary amount for testing."
      },
      "getRequestConfig()": {
        "notice": "Get configuration relevant for making requests"
      }
    },
    "version": 1
  },
  "storageLayout": {
    "storage": [
      {
        "astId": 340,
        "contract": "@chainlink/contracts/src/v0.8/mocks/VRFCoordinatorV2Mock.sol:VRFCoordinatorV2Mock",
        "label": "s_currentSubId",
        "offset": 0,
        "slot": "0",
        "type": "t_uint64"
      },
      {
        "astId": 343,
        "contract": "@chainlink/contracts/src/v0.8/mocks/VRFCoordinatorV2Mock.sol:VRFCoordinatorV2Mock",
        "label": "s_nextRequestId",
        "offset": 0,
        "slot": "1",
        "type": "t_uint256"
      },
      {
        "astId": 346,
        "contract": "@chainlink/contracts/src/v0.8/mocks/VRFCoordinatorV2Mock.sol:VRFCoordinatorV2Mock",
        "label": "s_nextPreSeed",
        "offset": 0,
        "slot": "2",
        "type": "t_uint256"
      },
      {
        "astId": 356,
        "contract": "@chainlink/contracts/src/v0.8/mocks/VRFCoordinatorV2Mock.sol:VRFCoordinatorV2Mock",
        "label": "s_subscriptions",
        "offset": 0,
        "slot": "3",
        "type": "t_mapping(t_uint64,t_struct(Subscription)351_storage)"
      },
      {
        "astId": 361,
        "contract": "@chainlink/contracts/src/v0.8/mocks/VRFCoordinatorV2Mock.sol:VRFCoordinatorV2Mock",
        "label": "s_consumers",
        "offset": 0,
        "slot": "4",
        "type": "t_mapping(t_uint64,t_array(t_address)dyn_storage)"
      },
      {
        "astId": 373,
        "contract": "@chainlink/contracts/src/v0.8/mocks/VRFCoordinatorV2Mock.sol:VRFCoordinatorV2Mock",
        "label": "s_requests",
        "offset": 0,
        "slot": "5",
        "type": "t_mapping(t_uint256,t_struct(Request)368_storage)"
      }
    ],
    "types": {
      "t_address": {
        "encoding": "inplace",
        "label": "address",
        "numberOfBytes": "20"
      },
      "t_array(t_address)dyn_storage": {
        "base": "t_address",
        "encoding": "dynamic_array",
        "label": "address[]",
        "numberOfBytes": "32"
      },
      "t_mapping(t_uint256,t_struct(Request)368_storage)": {
        "encoding": "mapping",
        "key": "t_uint256",
        "label": "mapping(uint256 => struct VRFCoordinatorV2Mock.Request)",
        "numberOfBytes": "32",
        "value": "t_struct(Request)368_storage"
      },
      "t_mapping(t_uint64,t_array(t_address)dyn_storage)": {
        "encoding": "mapping",
        "key": "t_uint64",
        "label": "mapping(uint64 => address[])",
        "numberOfBytes": "32",
        "value": "t_array(t_address)dyn_storage"
      },
      "t_mapping(t_uint64,t_struct(Subscription)351_storage)": {
        "encoding": "mapping",
        "key": "t_uint64",
        "label": "mapping(uint64 => struct VRFCoordinatorV2Mock.Subscription)",
        "numberOfBytes": "32",
        "value": "t_struct(Subscription)351_storage"
      },
      "t_struct(Request)368_storage": {
        "encoding": "inplace",
        "label": "struct VRFCoordinatorV2Mock.Request",
        "members": [
          {
            "astId": 363,
            "contract": "@chainlink/contracts/src/v0.8/mocks/VRFCoordinatorV2Mock.sol:VRFCoordinatorV2Mock",
            "label": "subId",
            "offset": 0,
            "slot": "0",
            "type": "t_uint64"
          },
          {
            "astId": 365,
            "contract": "@chainlink/contracts/src/v0.8/mocks/VRFCoordinatorV2Mock.sol:VRFCoordinatorV2Mock",
            "label": "callbackGasLimit",
            "offset": 8,
            "slot": "0",
            "type": "t_uint32"
          },
          {
            "astId": 367,
            "contract": "@chainlink/contracts/src/v0.8/mocks/VRFCoordinatorV2Mock.sol:VRFCoordinatorV2Mock",
            "label": "numWords",
            "offset": 12,
            "slot": "0",
            "type": "t_uint32"
          }
        ],
        "numberOfBytes": "32"
      },
      "t_struct(Subscription)351_storage": {
        "encoding": "inplace",
        "label": "struct VRFCoordinatorV2Mock.Subscription",
        "members": [
          {
            "astId": 348,
            "contract": "@chainlink/contracts/src/v0.8/mocks/VRFCoordinatorV2Mock.sol:VRFCoordinatorV2Mock",
            "label": "owner",
            "offset": 0,
            "slot": "0",
            "type": "t_address"
          },
          {
            "astId": 350,
            "contract": "@chainlink/contracts/src/v0.8/mocks/VRFCoordinatorV2Mock.sol:VRFCoordinatorV2Mock",
            "label": "balance",
            "offset": 20,
            "slot": "0",
            "type": "t_uint96"
          }
        ],
        "numberOfBytes": "32"
      },
      "t_uint256": {
        "encoding": "inplace",
        "label": "uint256",
        "numberOfBytes": "32"
      },
      "t_uint32": {
        "encoding": "inplace",
        "label": "uint32",
        "numberOfBytes": "4"
      },
      "t_uint64": {
        "encoding": "inplace",
        "label": "uint64",
        "numberOfBytes": "8"
      },
      "t_uint96": {
        "encoding": "inplace",
        "label": "uint96",
        "numberOfBytes": "12"
      }
    }
  }
}