{
  "address": "0x505FcC746346C021D62653FC59bB2E1D3fe4e4C2",
  "abi": [
    {
      "inputs": [
        {
          "internalType": "uint256",
          "name": "entranceFee",
          "type": "uint256"
        },
        {
          "internalType": "address",
          "name": "vrfCoordinatorV2",
          "type": "address"
        },
        {
          "internalType": "uint64",
          "name": "subscriptionId",
          "type": "uint64"
        },
        {
          "internalType": "bytes32",
          "name": "gaslane",
          "type": "bytes32"
        },
        {
          "internalType": "uint256",
          "name": "interval",
          "type": "uint256"
        },
        {
          "internalType": "uint32",
          "name": "callbackGasLimit",
          "type": "uint32"
        }
      ],
      "stateMutability": "nonpayable",
      "type": "constructor"
    },
    {
      "inputs": [
        {
          "internalType": "address",
          "name": "have",
          "type": "address"
        },
        {
          "internalType": "address",
          "name": "want",
          "type": "address"
        }
      ],
      "name": "OnlyCoordinatorCanFulfill",
      "type": "error"
    },
    {
      "inputs": [],
      "name": "Raffle_RaffleNotOpen",
      "type": "error"
    },
    {
      "inputs": [],
      "name": "Raffle_TransferFailed",
      "type": "error"
    },
    {
      "inputs": [],
      "name": "Raffle_sendMoreToEnterRaffle",
      "type": "error"
    },
    {
      "inputs": [
        {
          "internalType": "uint256",
          "name": "currentBalance",
          "type": "uint256"
        },
        {
          "internalType": "uint256",
          "name": "numPlayers",
          "type": "uint256"
        },
        {
          "internalType": "uint256",
          "name": "raffleState",
          "type": "uint256"
        }
      ],
      "name": "Raffle_upKeepNeeded",
      "type": "error"
    },
    {
      "anonymous": false,
      "inputs": [
        {
          "indexed": true,
          "internalType": "address",
          "name": "player",
          "type": "address"
        }
      ],
      "name": "RaffleEnter",
      "type": "event"
    },
    {
      "anonymous": false,
      "inputs": [
        {
          "indexed": true,
          "internalType": "uint256",
          "name": "requestId",
          "type": "uint256"
        }
      ],
      "name": "RequestedRaffleWinner",
      "type": "event"
    },
    {
      "anonymous": false,
      "inputs": [
        {
          "indexed": true,
          "internalType": "address",
          "name": "player",
          "type": "address"
        }
      ],
      "name": "WinnerPicked",
      "type": "event"
    },
    {
      "inputs": [
        {
          "internalType": "bytes",
          "name": "",
          "type": "bytes"
        }
      ],
      "name": "checkUpkeep",
      "outputs": [
        {
          "internalType": "bool",
          "name": "upKeepNeeded",
          "type": "bool"
        },
        {
          "internalType": "bytes",
          "name": "",
          "type": "bytes"
        }
      ],
      "stateMutability": "view",
      "type": "function"
    },
    {
      "inputs": [],
      "name": "enterRaffle",
      "outputs": [],
      "stateMutability": "payable",
      "type": "function"
    },
    {
      "inputs": [],
      "name": "getEntranceFee",
      "outputs": [
        {
          "internalType": "uint256",
          "name": "",
          "type": "uint256"
        }
      ],
      "stateMutability": "view",
      "type": "function"
    },
    {
      "inputs": [],
      "name": "getInterval",
      "outputs": [
        {
          "internalType": "uint256",
          "name": "",
          "type": "uint256"
        }
      ],
      "stateMutability": "view",
      "type": "function"
    },
    {
      "inputs": [],
      "name": "getLastTimeStamp",
      "outputs": [
        {
          "internalType": "uint256",
          "name": "",
          "type": "uint256"
        }
      ],
      "stateMutability": "view",
      "type": "function"
    },
    {
      "inputs": [],
      "name": "getNumWords",
      "outputs": [
        {
          "internalType": "uint256",
          "name": "",
          "type": "uint256"
        }
      ],
      "stateMutability": "pure",
      "type": "function"
    },
    {
      "inputs": [],
      "name": "getNumberOfPlayers",
      "outputs": [
        {
          "internalType": "uint256",
          "name": "",
          "type": "uint256"
        }
      ],
      "stateMutability": "view",
      "type": "function"
    },
    {
      "inputs": [
        {
          "internalType": "uint256",
          "name": "index",
          "type": "uint256"
        }
      ],
      "name": "getPlayer",
      "outputs": [
        {
          "internalType": "address",
          "name": "",
          "type": "address"
        }
      ],
      "stateMutability": "view",
      "type": "function"
    },
    {
      "inputs": [],
      "name": "getRaffleState",
      "outputs": [
        {
          "internalType": "enum Raffle.RaffleState",
          "name": "",
          "type": "uint8"
        }
      ],
      "stateMutability": "view",
      "type": "function"
    },
    {
      "inputs": [],
      "name": "getRecentWinner",
      "outputs": [
        {
          "internalType": "address",
          "name": "",
          "type": "address"
        }
      ],
      "stateMutability": "view",
      "type": "function"
    },
    {
      "inputs": [],
      "name": "getRequestConfirmations",
      "outputs": [
        {
          "internalType": "uint256",
          "name": "",
          "type": "uint256"
        }
      ],
      "stateMutability": "pure",
      "type": "function"
    },
    {
      "inputs": [],
      "name": "getRequestId",
      "outputs": [
        {
          "internalType": "uint256",
          "name": "",
          "type": "uint256"
        }
      ],
      "stateMutability": "view",
      "type": "function"
    },
    {
      "inputs": [
        {
          "internalType": "bytes",
          "name": "",
          "type": "bytes"
        }
      ],
      "name": "performUpkeep",
      "outputs": [],
      "stateMutability": "nonpayable",
      "type": "function"
    },
    {
      "inputs": [
        {
          "internalType": "uint256",
          "name": "requestId",
          "type": "uint256"
        },
        {
          "internalType": "uint256[]",
          "name": "randomWords",
          "type": "uint256[]"
        }
      ],
      "name": "rawFulfillRandomWords",
      "outputs": [],
      "stateMutability": "nonpayable",
      "type": "function"
    }
  ],
  "transactionHash": "0x0bcc25d02824115f25b235d0a35ca2d9eefc78047ac7c749ad29f99f3acdf5d4",
  "args": [
    "10000000000000000",
    "0x8103B0A8A00be2DDC778e6e7eaa21791Cd364625",
    "4028",
    "0x474e34a077df58807dbe9c96d3c009b23b3c6d0cce433e59bbf5b34f823bc56c",
    "30",
    "2300000"
  ],
  "numDeployments": 6,
  "solcInputHash": "7593db6229ae30da7693bd0d534c0d9b",
  "bytecode": "0x6101406040523480156200001257600080fd5b506040516200187a3803806200187a8339818101604052810190620000389190620001ab565b848073ffffffffffffffffffffffffffffffffffffffff1660808173ffffffffffffffffffffffffffffffffffffffff1660601b81525050508473ffffffffffffffffffffffffffffffffffffffff1660a08173ffffffffffffffffffffffffffffffffffffffff1660601b815250508561012081815250508260e08181525050816003819055508367ffffffffffffffff1660c08167ffffffffffffffff1660c01b815250508063ffffffff166101008163ffffffff1660e01b81525050426004819055506000600260006101000a81548160ff02191690836001811115620001275762000126620002b3565b5b021790555050505050505062000369565b6000815190506200014981620002e7565b92915050565b600081519050620001608162000301565b92915050565b60008151905062000177816200031b565b92915050565b6000815190506200018e8162000335565b92915050565b600081519050620001a5816200034f565b92915050565b60008060008060008060c08789031215620001cb57620001ca620002e2565b5b6000620001db89828a0162000166565b9650506020620001ee89828a0162000138565b95505060406200020189828a0162000194565b94505060606200021489828a016200014f565b93505060806200022789828a0162000166565b92505060a06200023a89828a016200017d565b9150509295509295509295565b6000620002548262000265565b9050919050565b6000819050919050565b600073ffffffffffffffffffffffffffffffffffffffff82169050919050565b6000819050919050565b600063ffffffff82169050919050565b600067ffffffffffffffff82169050919050565b7f4e487b7100000000000000000000000000000000000000000000000000000000600052602160045260246000fd5b600080fd5b620002f28162000247565b8114620002fe57600080fd5b50565b6200030c816200025b565b81146200031857600080fd5b50565b620003268162000285565b81146200033257600080fd5b50565b62000340816200028f565b81146200034c57600080fd5b50565b6200035a816200029f565b81146200036657600080fd5b50565b60805160601c60a05160601c60c05160c01c60e0516101005160e01c610120516114a7620003d3600039600081816103490152610446015260006106e9015260006106a5015260006106c60152600061066901526000818161038601526103da01526114a76000f3fe6080604052600436106100dd5760003560e01c806353a2c19a1161007f57806391ad27b41161005957806391ad27b41461027e578063c1c244e8146102a9578063e55ae4e8146102d4578063fd6673f514610311576100dd565b806353a2c19a146101ea5780635f1b0fd8146102155780636e04ff0d14610240576100dd565b80631fe543e3116100bb5780631fe543e3146101635780632cfcc5391461018c5780634585e33b14610196578063473f1ddc146101bf576100dd565b8063077001b9146100e257806309bc33a71461010d578063115cbaf514610138575b600080fd5b3480156100ee57600080fd5b506100f761033c565b60405161010491906110ad565b60405180910390f35b34801561011957600080fd5b50610122610345565b60405161012f91906110ad565b60405180910390f35b34801561014457600080fd5b5061014d61036d565b60405161015a9190611092565b60405180910390f35b34801561016f57600080fd5b5061018a60048036038101906101859190610e86565b610384565b005b610194610444565b005b3480156101a257600080fd5b506101bd60048036038101906101b89190610d96565b6105b3565b005b3480156101cb57600080fd5b506101d46107b6565b6040516101e19190610fcb565b60405180910390f35b3480156101f657600080fd5b506101ff6107e0565b60405161020c91906110ad565b60405180910390f35b34801561022157600080fd5b5061022a6107ef565b60405161023791906110ad565b60405180910390f35b34801561024c57600080fd5b5061026760048036038101906102629190610de3565b6107fc565b60405161027592919061100f565b60405180910390f35b34801561028a57600080fd5b506102936108c5565b6040516102a091906110ad565b60405180910390f35b3480156102b557600080fd5b506102be6108cf565b6040516102cb91906110ad565b60405180910390f35b3480156102e057600080fd5b506102fb60048036038101906102f69190610e2c565b6108d9565b6040516103089190610fcb565b60405180910390f35b34801561031d57600080fd5b50610326610921565b60405161033391906110ad565b60405180910390f35b60008054905090565b60007f0000000000000000000000000000000000000000000000000000000000000000905090565b6000600260009054906101000a900460ff16905090565b7f000000000000000000000000000000000000000000000000000000000000000073ffffffffffffffffffffffffffffffffffffffff163373ffffffffffffffffffffffffffffffffffffffff161461043657337f00000000000000000000000000000000000000000000000000000000000000006040517f1cf993f400000000000000000000000000000000000000000000000000000000815260040161042d929190610fe6565b60405180910390fd5b610440828261092e565b5050565b7f000000000000000000000000000000000000000000000000000000000000000034101561049e576040517fe405d1fd00000000000000000000000000000000000000000000000000000000815260040160405180910390fd5b600060018111156104b2576104b1611387565b5b600260009054906101000a900460ff1660018111156104d4576104d3611387565b5b1461050b576040517f6eac21ed00000000000000000000000000000000000000000000000000000000815260040160405180910390fd5b6001339080600181540180825580915050600190039060005260206000200160009091909190916101000a81548173ffffffffffffffffffffffffffffffffffffffff021916908373ffffffffffffffffffffffffffffffffffffffff1602179055503373ffffffffffffffffffffffffffffffffffffffff167f0805e1d667bddb8a95f0f09880cf94f403fb596ce79928d9f29b74203ba284d460405160405180910390a2565b60006105cd604051806020016040528060008152506107fc565b5090508061063c5747600180549050600260009054906101000a900460ff1660018111156105fe576105fd611387565b5b6040517f18a2f666000000000000000000000000000000000000000000000000000000008152600401610633939291906110c8565b60405180910390fd5b6001600260006101000a81548160ff0219169083600181111561066257610661611387565b5b02179055507f000000000000000000000000000000000000000000000000000000000000000073ffffffffffffffffffffffffffffffffffffffff16635d3b1d307f00000000000000000000000000000000000000000000000000000000000000007f000000000000000000000000000000000000000000000000000000000000000060037f000000000000000000000000000000000000000000000000000000000000000060016040518663ffffffff1660e01b815260040161072a95949392919061103f565b602060405180830381600087803b15801561074457600080fd5b505af1158015610758573d6000803e3d6000fd5b505050506040513d601f19601f8201168201806040525081019061077c9190610e59565b6000819055506000547fcd6e45c8998311cab7e9d4385596cac867e20a0587194b954fa3a731c93ce78b60405160405180910390a2505050565b6000600560009054906101000a900473ffffffffffffffffffffffffffffffffffffffff16905090565b6000600163ffffffff16905090565b6000600361ffff16905090565b60006060600080600181111561081557610814611387565b5b600260009054906101000a900460ff16600181111561083757610836611387565b5b14905060006003546004544261084d91906111a8565b1190506000806001805490501190506000804711905083801561086d5750825b80156108765750815b801561087f5750805b9550856040518060400160405280600381526020017f30783000000000000000000000000000000000000000000000000000000000008152509550955050505050915091565b6000600354905090565b6000600454905090565b6000600182815481106108ef576108ee6113b6565b5b9060005260206000200160009054906101000a900473ffffffffffffffffffffffffffffffffffffffff169050919050565b6000600180549050905090565b60006001805490508260008151811061094a576109496113b6565b5b602002602001015161095c91906112f8565b9050600060018281548110610974576109736113b6565b5b9060005260206000200160009054906101000a900473ffffffffffffffffffffffffffffffffffffffff16905080600560006101000a81548173ffffffffffffffffffffffffffffffffffffffff021916908373ffffffffffffffffffffffffffffffffffffffff16021790555042600481905550600067ffffffffffffffff811115610a0457610a036113e5565b5b604051908082528060200260200182016040528015610a325781602001602082028036833780820191505090505b5060019080519060200190610a48929190610b61565b506000600260006101000a81548160ff02191690836001811115610a6f57610a6e611387565b5b021790555060008173ffffffffffffffffffffffffffffffffffffffff1647604051610a9a90610fb6565b60006040518083038185875af1925050503d8060008114610ad7576040519150601f19603f3d011682016040523d82523d6000602084013e610adc565b606091505b5050905080610b17576040517fba31c4f300000000000000000000000000000000000000000000000000000000815260040160405180910390fd5b8173ffffffffffffffffffffffffffffffffffffffff167f5b690ec4a06fe979403046eaeea5b3ce38524683c3001f662c8b5a829632f7df60405160405180910390a25050505050565b828054828255906000526020600020908101928215610bda579160200282015b82811115610bd95782518260006101000a81548173ffffffffffffffffffffffffffffffffffffffff021916908373ffffffffffffffffffffffffffffffffffffffff16021790555091602001919060010190610b81565b5b509050610be79190610beb565b5090565b5b80821115610c04576000816000905550600101610bec565b5090565b6000610c1b610c1684611124565b6110ff565b90508083825260208201905082856020860282011115610c3e57610c3d61141e565b5b60005b85811015610c6e5781610c548882610d6c565b845260208401935060208301925050600181019050610c41565b5050509392505050565b6000610c8b610c8684611150565b6110ff565b905082815260208101848484011115610ca757610ca6611423565b5b610cb2848285611285565b509392505050565b600082601f830112610ccf57610cce611419565b5b8135610cdf848260208601610c08565b91505092915050565b60008083601f840112610cfe57610cfd611419565b5b8235905067ffffffffffffffff811115610d1b57610d1a611414565b5b602083019150836001820283011115610d3757610d3661141e565b5b9250929050565b600082601f830112610d5357610d52611419565b5b8135610d63848260208601610c78565b91505092915050565b600081359050610d7b8161145a565b92915050565b600081519050610d908161145a565b92915050565b60008060208385031215610dad57610dac61142d565b5b600083013567ffffffffffffffff811115610dcb57610dca611428565b5b610dd785828601610ce8565b92509250509250929050565b600060208284031215610df957610df861142d565b5b600082013567ffffffffffffffff811115610e1757610e16611428565b5b610e2384828501610d3e565b91505092915050565b600060208284031215610e4257610e4161142d565b5b6000610e5084828501610d6c565b91505092915050565b600060208284031215610e6f57610e6e61142d565b5b6000610e7d84828501610d81565b91505092915050565b60008060408385031215610e9d57610e9c61142d565b5b6000610eab85828601610d6c565b925050602083013567ffffffffffffffff811115610ecc57610ecb611428565b5b610ed885828601610cba565b9150509250929050565b610eeb816111dc565b82525050565b610efa816111ee565b82525050565b610f09816111fa565b82525050565b6000610f1a82611181565b610f24818561118c565b9350610f34818560208601611294565b610f3d81611432565b840191505092915050565b610f5181611273565b82525050565b6000610f6460008361119d565b9150610f6f82611443565b600082019050919050565b610f8381611217565b82525050565b610f9281611245565b82525050565b610fa18161124f565b82525050565b610fb08161125f565b82525050565b6000610fc182610f57565b9150819050919050565b6000602082019050610fe06000830184610ee2565b92915050565b6000604082019050610ffb6000830185610ee2565b6110086020830184610ee2565b9392505050565b60006040820190506110246000830185610ef1565b81810360208301526110368184610f0f565b90509392505050565b600060a0820190506110546000830188610f00565b6110616020830187610fa7565b61106e6040830186610f7a565b61107b6060830185610f98565b6110886080830184610f98565b9695505050505050565b60006020820190506110a76000830184610f48565b92915050565b60006020820190506110c26000830184610f89565b92915050565b60006060820190506110dd6000830186610f89565b6110ea6020830185610f89565b6110f76040830184610f89565b949350505050565b600061110961111a565b905061111582826112c7565b919050565b6000604051905090565b600067ffffffffffffffff82111561113f5761113e6113e5565b5b602082029050602081019050919050565b600067ffffffffffffffff82111561116b5761116a6113e5565b5b61117482611432565b9050602081019050919050565b600081519050919050565b600082825260208201905092915050565b600081905092915050565b60006111b382611245565b91506111be83611245565b9250828210156111d1576111d0611329565b5b828203905092915050565b60006111e782611225565b9050919050565b60008115159050919050565b6000819050919050565b600081905061121282611446565b919050565b600061ffff82169050919050565b600073ffffffffffffffffffffffffffffffffffffffff82169050919050565b6000819050919050565b600063ffffffff82169050919050565b600067ffffffffffffffff82169050919050565b600061127e82611204565b9050919050565b82818337600083830152505050565b60005b838110156112b2578082015181840152602081019050611297565b838111156112c1576000848401525b50505050565b6112d082611432565b810181811067ffffffffffffffff821117156112ef576112ee6113e5565b5b80604052505050565b600061130382611245565b915061130e83611245565b92508261131e5761131d611358565b5b828206905092915050565b7f4e487b7100000000000000000000000000000000000000000000000000000000600052601160045260246000fd5b7f4e487b7100000000000000000000000000000000000000000000000000000000600052601260045260246000fd5b7f4e487b7100000000000000000000000000000000000000000000000000000000600052602160045260246000fd5b7f4e487b7100000000000000000000000000000000000000000000000000000000600052603260045260246000fd5b7f4e487b7100000000000000000000000000000000000000000000000000000000600052604160045260246000fd5b600080fd5b600080fd5b600080fd5b600080fd5b600080fd5b600080fd5b6000601f19601f8301169050919050565b50565b6002811061145757611456611387565b5b50565b61146381611245565b811461146e57600080fd5b5056fea264697066735822122023d651c797c4c92fb61ce9e4810146ecfc05a086fb7744d7c860db6018e96d0364736f6c63430008070033",
  "devdoc": {
    "kind": "dev",
    "methods": {},
    "version": 1
  },
  "userdoc": {
    "kind": "user",
    "methods": {},
    "version": 1
  },
  "storageLayout": {
    "storage": [
      {
        "astId": 191,
        "contract": "contracts/Raffle.sol:Raffle",
        "label": "requestId",
        "offset": 0,
        "slot": "0",
        "type": "t_uint256"
      },
      {
        "astId": 206,
        "contract": "contracts/Raffle.sol:Raffle",
        "label": "s_players",
        "offset": 0,
        "slot": "1",
        "type": "t_array(t_address_payable)dyn_storage"
      },
      {
        "astId": 209,
        "contract": "contracts/Raffle.sol:Raffle",
        "label": "s_raffleState",
        "offset": 0,
        "slot": "2",
        "type": "t_enum(RaffleState)184"
      },
      {
        "astId": 211,
        "contract": "contracts/Raffle.sol:Raffle",
        "label": "i_interval",
        "offset": 0,
        "slot": "3",
        "type": "t_uint256"
      },
      {
        "astId": 213,
        "contract": "contracts/Raffle.sol:Raffle",
        "label": "s_lastTimeStamp",
        "offset": 0,
        "slot": "4",
        "type": "t_uint256"
      },
      {
        "astId": 215,
        "contract": "contracts/Raffle.sol:Raffle",
        "label": "s_recentWinner",
        "offset": 0,
        "slot": "5",
        "type": "t_address"
      }
    ],
    "types": {
      "t_address": {
        "encoding": "inplace",
        "label": "address",
        "numberOfBytes": "20"
      },
      "t_address_payable": {
        "encoding": "inplace",
        "label": "address payable",
        "numberOfBytes": "20"
      },
      "t_array(t_address_payable)dyn_storage": {
        "base": "t_address_payable",
        "encoding": "dynamic_array",
        "label": "address payable[]",
        "numberOfBytes": "32"
      },
      "t_enum(RaffleState)184": {
        "encoding": "inplace",
        "label": "enum Raffle.RaffleState",
        "numberOfBytes": "1"
      },
      "t_uint256": {
        "encoding": "inplace",
        "label": "uint256",
        "numberOfBytes": "32"
      }
    }
  }
}